:020000040800F2
:1000000060C80120AD010008316C00087B37000892
:100010002D6C00087F050008B9870008000000006B
:10002000000000000000000000000000717E0008D9
:100030003307000800000000336C0008417F00080F
:10004000C7010008C7010008C7010008C701000870
:10005000C7010008C7010008C7010008C701000860
:10006000C7010008C7010008C7010008C701000850
:10007000C7010008C7010008C7010008850500087E
:10008000C7010008C7010008C7010008C701000830
:10009000C7010008C7010008C7010008C701000820
:1000A000C7010008BD7F0008C7010008AD7F000838
:1000B000C7010008C7010008CD7F0008C70100087C
:1000C000C7010008C7010008C7010008C7010008F0
:1000D000C701000879870008C7010008C7010008A8
:1000E000C7010008C7010008C7010008C7010008D0
:1000F000C7010008C7010008C7010008C7010008C0
:10010000C7010008C7010008C7010008C7010008AF
:10011000C7010008C7010008C7010008C70100089F
:10012000C7010008C7010008C7010008C70100088F
:10013000C7010008C7010008C7010008C70100087F
:10014000C7010008C7010008C7010008C70100086F
:10015000C7010008C7010008C7010008C70100085F
:10016000C7010008C7010008C7010008C70100084F
:10017000C7010008C7010008C7010008000000000F
:10018000C7010008C7010008DFF80CD000F0BAF979
:1001900000480047D1D5000860C8012030BF72B6C2
:1001A000704762B6704780F30888704706488047FA
:1001B00006480047FEE7FEE7FEE7FEE7FEE7FEE74C
:1001C000FEE7FEE7FEE7FEE7497F00088901000839
:1001D0002DE9F05F0546002092469B46884606467C
:1001E000814640241BE0284641464746224600F00F
:1001F0001BF953465A46C01A914110D3114618466E
:10020000224600F002F92D1A67EB01084F462246FC
:100210000120002100F0F9F817EB00094E41201EE3
:10022000A4F10104DFDC484631462A464346BDE8D6
:10023000F09F2DE9F0410024061B254671F10006D0
:1002400005DA01240027D0EB070067EB0101161E39
:1002500073F1000605DA0027D2EB0702012567EBF0
:100260000303FFF7B5FF86460E4617469C46AC4291
:1002700004D00025D0EB050E65EB010624B100206B
:10028000D2EB000760EB030C704631463A466346FA
:10029000BDE8F081421E12F8013F002BFBD111F89E
:1002A000013B02F8013B002BF9D1704710B5002249
:1002B00000E0521C835C8C5CA34201D1002BF8D17E
:1002C000D8B2E1B2401A10BD034611F8012B00F874
:1002D000012B002AF9D1184670472DE9FE4F81EA1B
:1002E000030404F0004421F0004100944FF0000B9F
:1002F00023F0004350EA01045ED052EA03045BD0CD
:10030000C3F30A54C1F30A552C44A4F2F334019404
:10031000A0FB0254C1F3130141F48011C3F3130392
:1003200043F4801301FB024400FB034E840A970A46
:1003300044EA815447EA8357A4FB076802958D0A73
:1003400005FB07854FEA932C04FB0C542705029DFF
:100350004FEA065847EA1637B5EB08056EEB070C6F
:10036000870E920E47EA811742EA8312A7FB020129
:10037000B6EB0B0164EB00042B0D43EA0C335E1863
:1003800044EB1C50DA465146E7FB0201C5F3130467
:100390004FEA0B3343EA14534FEA0432019C43EA19
:1003A0000603A4F10C040294009CCDE900B400F013
:1003B0005AF803B0BDE8F08F00200146F9E70EB50A
:1003C00040F2334102910021CDE900110A460B466B
:1003D00000F049F803B000BDC1F30A5210B5C1F3F3
:1003E000130140F2FF3341F480119A4201DA0020F8
:1003F00010BD40F233439A42A2F2334203DC524230
:1004000000F012F810BD904010BD202A04DB203A05
:1004100000FA02F1002070479140C2F1200320FA57
:1004200003F3194390407047202A04DB203A21FA55
:1004300002F00021704721FA02F3D040C2F12002FD
:10044000914008431946704710B5141E73F100041B
:1004500008DA401C41F1000192185B411A4301D1B6
:1004600020F0010010BD2DE9F04D92469B4611B1E0
:10047000B1FA81F202E0B0FA80F220329046FFF742
:10048000C4FF04460F4640EA0A0041EA0B01534606
:100490005A46084313D0114653EA010019D0C8F157
:1004A00040025046FFF7C0FF05460E4650465946EB
:1004B0004246FFF7AAFF084305D0012004E020468A
:1004C0003946BDE8F08D0020054346EAE0762C432E
:1004D00037430A986305E40AA0EB08000022FD0AEE
:1004E00044EA47540A3002D500200146E9E70105F5
:1004F00010196941DDE9084500196941BDE8F04D71
:10050000A2E70000064C074D06E0E06840F001035A
:1005100094E8070098471034AC42F6D3FFF738FE52
:10052000980B0108B80B010870B58C1810F8015B26
:1005300015F0070301D110F8013B2A1106D110F87C
:10054000012B03E010F8016B01F8016B5B1EF9D180
:100550002B0705D40023521E0DD401F8013BFAE706
:1005600010F8013BCB1A921C03E013F8015B01F871
:10057000015B521EF9D5A142D8D3002070BD00BF47
:10058000FEE7000010B5274800682749884205D9D2
:1005900025485438006800F020001BE0214800681E
:1005A0002249884205D920485838006800F02000C8
:1005B00010E01C4800681D496039884205D91B4875
:1005C000B838406800F0200004E01848B8380068E7
:1005D00000F0200028B3134800681349884204D96A
:1005E000202011494C39086018E00E4800680F4976
:1005F000884204D920200C49503908600EE009488F
:1006000000680A496039884204D920200749B8396E
:10061000C86003E020200549B839886004480068B4
:10062000804710BDB818002058640240B8600240EE
:10063000200000200146087810381823B0FBF3F2A0
:100640000848805CC865032A05D908686FF309006B
:10065000001D886503E008686FF309008865886DF0
:100660007047000086030108014600208A6A8B69F2
:10067000CBB932B1012A0DD0022A03D0032A10D1FE
:100680000EE000BFCB6A03F08073B3F1807F00D12E
:10069000012007E0CB6AB3F1C07F00D1012001E067
:1006A00000E000BF34E08B69B3F5005F1AD132B1CE
:1006B000012A07D0022A03D0032A11D10AE000BF81
:1006C00001200EE0CB6A03F08073B3F1807F00D18C
:1006D000012006E0CB6AB3F1C07F00D1012000E029
:1006E00000BF15E032B1012A05D0022A04D0032A46
:1006F0000CD103E000BF00BF012008E0CB6A03F08B
:100700008073B3F1807F00D1012000E000BF00BF03
:10071000704710B5046863608468402C04D1046895
:10072000A2600468E16003E00468A1600468E2601C
:1007300010BD704710B5002201B909E0012901D1AF
:100740000A0205E0022901D10A0201E04FF44072D9
:100750000E4B1B6823F440730C4C236023461B682C
:100760001343236023461B6823F0F80323602346CA
:100770001B68022444EAC0042343044C236023463C
:100780001B6843F48033236010BD0000103C02401E
:100790001C48006800F40070B0B11A48006820F4EA
:1007A00000701849086000BF0846006840F4006007
:1007B00008600846006820F40060086000BF084632
:1007C000006840F4007008600E48006800F4806023
:1007D000B0B10C48006820F480600A49086000BF8E
:1007E0000846006840F4805008600846006820F41D
:1007F0008050086000BF0846006840F480600860D0
:1008000070470000003C02400A4A126822F440721D
:10081000084B1A601A46126842F004021A601A461F
:1008200012684FF4803343EA00231A43014B1A60E5
:1008300070470000103C0240074A126822F44072E0
:10084000054B1A601A4612681A601A46126842F07E
:1008500001021A6001707047103C024010B509494E
:10086000096821F44071074C21602146096841F470
:10087000407121602146096841F001012160026058
:10088000436010BD103C0240084A126822F44072D6
:10089000064B1A601A46126842F480721A601A46B1
:1008A000126842F001021A6001807047103C024059
:1008B000084A126822F44072064B1A601A461268FF
:1008C00042F400721A601A46126842F001021A607D
:1008D00001607047103C02402348006800F010009F
:1008E00040B12248C06940F010002049C861102082
:1008F0001D4908601C48006800F0200040B11B48FA
:10090000C06940F008001949C861202016490860F4
:100910001548006800F0400040B11448C06940F03C
:1009200004001249C86140200F4908600E48006861
:1009300000F0800040B10D48C06940F002000B4952
:10094000C8618020084908600748006800F002007C
:1009500040B10648C06940F020000449C861022047
:1009600001490860704700000C3C0240DC02002096
:1009700070B50446002500201449C86100F08CFBC6
:10098000054609E0601C38B124B100F085FB401B2E
:10099000A04201D9032070BD0D48006800F48030EA
:1009A0000028EFD10A48006800F0010010B10120D2
:1009B000074908600648006800F0F20018B1FFF728
:1009C0008BFF0120E7E70020E5E70000DC020020C4
:1009D0000C3C024070B504461D460023B5F5804F1F
:1009E00013D154F822300C480340D1E9000640EA04
:1009F00006108E6840EA06208E8940EA06408E691D
:100A00003043034344F8223003E06FF0704044F871
:100A10002200002070BD00000000F0CF10B503469A
:100A20000022086853F8202012480240D1E901044E
:100A30002043CC6820430C6920434C6920438C69D7
:100A40002043CC6920430C6A20434C6A20438C6AC3
:100A50002043CC6A2043CC6B20430C6B20430243E1
:100A60008868082801D142F04002086843F8202035
:100A7000002010BD8000F0FF30B503460024501C5C
:100A800053F8204004F04044D1E9000540EA051045
:100A90008D6840EA05208D8940EA0545088A401E98
:100AA00045EA0055087D801E45EA00608D692843AF
:100AB0000443501C43F82040002030BD2DE9F0478E
:100AC00004460E4617461D46DDF820804FF000090B
:100AD000A068802804D1400060654FF0010929E03A
:100AE00000BF94F83400012802D10220BDE8F0874D
:100AF000012084F8340000BF94F83500012817D194
:100B0000022084F835002068006840F480202168C5
:100B100008602068056143463A4631462046FFF7A3
:100B2000F8FD2068006840F001002168086001E0DD
:100B30004FF002094846D9E7014691F835000228EE
:100B400003D08020486501207047052081F83500DA
:100B50000868006820F001000A6810600020F3E7D0
:100B600070B504460CB9012070BD94F83500022818
:100B700000D1F9E72068006820F0010021680860D2
:100B80000020216808602168486021688860216829
:100B9000C860216808612120216848612046FFF76C
:100BA00049FD05460020E06320646064A064E064C1
:100BB000206594F85C103F208840A86000206065A4
:100BC00084F8350000BF84F8340000BF00BFCBE7D5
:100BD0002DE9F0410446002500F05EFA074614B9FD
:100BE0000120BDE8F081606A00B100BF00BF0020B5
:100BF00084F8340000BF022084F8350020680068C3
:100C000020F00100216808600AE000F045FAC01BEE
:100C1000052805D920206065032084F83500E0E729
:100C20002068006800F001000028EED12068056807
:100C300021480540D4E901010843E16808432169DE
:100C4000084361690843A1690843E1690843216ACF
:100C500008430543606A042803D1D4E90B01084323
:100C60000543206805602068456925F00705606A2E
:100C70000543606A04280DD1A06A0543E06A48B1C3
:100C80002046FFF7F1FC28B140206065012084F880
:100C90003500A6E7206845612046FFF7CBFC0646F5
:100CA00094F85C103F208840B0600020606501200F
:100CB00084F83500002094E73F8010F070B50446BA
:100CC00000F0EAF906462546681C10B10448007891
:100CD000054400BF00F0E0F9801BA842FAD370BDC4
:100CE0000C0000202DE9F04104460E4601270025A6
:100CF00000BF2548007E012802D10220BDE8F08116
:100D000001202149087600BF4CF25030FFF730FE39
:100D10000746002F31D1401E3060206801280FD1D6
:100D2000207C6168FFF770FD4CF25030FFF720FE29
:100D300007461648006820F00400144908601AE0CD
:100D4000A56812E0217C2846FFF7F4FC4CF25030F5
:100D5000FFF70EFE07460D48006820F0FA000B4929
:100D600008600FB1356005E06D1CD4E9021008443D
:100D7000A842E7D800BFFFF70BFD00BF00200249E3
:100D8000087600BF3846B9E7DC020020103C02407C
:100D90000348006840F000400149086000207047A7
:100DA000103C02402DE9F04106460F4614461D4610
:100DB0004FF0010800BF1F48007E012802D1022029
:100DC000BDE8F08101201B49087600BF4CF250308D
:100DD000FFF7CEFD8046B8F1000F23D126B9E1B26E
:100DE0003846FFF729FD12E0012E04D1A1B23846A2
:100DF000FFF74AFD0BE0022E04D121463846FFF7EB
:100E000057FD04E022462B463846FFF727FD4CF2FB
:100E10005030FFF7ADFD80460748006820F0010024
:100E20000549086000BF00200249087600BF40461F
:100E3000C6E70000DC020020103C02400020094907
:100E4000096801F0004159B10749064A0C3A11609E
:100E5000064911600349096801F0004101B1012010
:100E600070470000103C024023016745AB89EFCD7D
:100E7000F8B502460B460025002400200021DCE0E6
:100E8000012606FA01F51E6806EA0504AC4273D194
:100E90005E68022E02D05E68122E13D1CF0802F1D6
:100EA000200656F827004E07F70E0F26BE40B04327
:100EB0004F07FF0E1E69BE403043CF0802F12006E7
:100EC00046F8270010684F000326BE40B0431E7945
:100ED00006F003064F00BE40304310605E68012EEE
:100EE00008D05E68022E05D05E68112E02D05E68C2
:100EF000122E13D190684F000326BE40B0434F001E
:100F0000DE68BE4030439060506801268E40B0439A
:100F10001E79C6F300168E4030435060D0684F00F3
:100F20000326BE40B0434F009E68BE403043D060B1
:100F30005E6806F08056B6F1805F7DD100BF002666
:100F40000096404E366846F480463E4F3E603E4630
:100F5000366806F48046009600BF00BF3A4E8F0800
:100F600056F827008E07370F0F26BE40B043374E86
:100F7000B24202D1002624E05EE0354EB24201D1F9
:100F800001261EE0334EB24201D1022619E0324E54
:100F9000B24201D1032614E0304EB24201D1042600
:100FA0000FE02F4EB24201D105260AE02D4EB2428B
:100FB00001D1062605E02C4EB24201D1072600E001
:100FC00008268F073F0FBE4030431F4E8F0846F85C
:100FD0002700264E3068A0435E6806F48036B6F5DA
:100FE000803F00D12043214E3060361D3068A04341
:100FF0005E6806F40036B6F5003F00D120431B4E74
:10100000361D3060361D3068A0435E6806F48016D9
:10101000B6F5801F00D12043144E08363060361DCF
:101020003068A0435E6806F40016B6F5001F00D1D4
:1010300020430E4E0C363060491C1029FFF420AFBF
:10104000F8BD00004438024008380140000002406A
:101050000004024000080240000C02400010024060
:101060000014024000180240001C0240003C0140F5
:10107000024613690B400BB1012000E000207047CD
:101080000AB1816101E00B04836170470148006887
:10109000000C7047002004E0014800687047000021
:1010A0000400002010B586B00446206880680590D2
:1010B0008B492068884201D18A4801E04FF04020E6
:1010C00080680490206840680390854920688842C1
:1010D00001D1844801E04FF04020406802906068F0
:1010E000B0F5007F02D0606800286FD1059800F04D
:1010F0000200022806D1039800F0800010B12046BB
:1011000002F0A0FC049800F0010030B1029800F059
:10111000400010B1204602F05FFC049800F040004F
:10112000402832D1029800F0200070B36C4920684A
:10113000884201D16B4801E04FF04020406820F028
:101140006000674A2168914201D1664901E04FF091
:10115000402148602068406820F0A0002168486075
:1011600000BF002001902068C0680190206880685E
:10117000019000BF00BF012084F84100606C40F086
:1011800002006064204600F0B0F8059800F0080006
:10119000082831D1039800F0200000282CD02068C6
:1011A000406820F0A000216848604D4920688842CE
:1011B00001D14C4801E04FF04020406820F0600031
:1011C000474A2168914202D1464902E015E04FF0BA
:1011D0004021486000BF0020019020688068019095
:1011E00000BF00BF012084F84100606C40F00400A3
:1011F0006064204600F079F870E0049800F0020086
:10120000022806D1029800F0800010B1204602F0BA
:1012100035FC059800F0010030B1039800F0400063
:1012200010B1204602F0BAFB059800F040004028BB
:1012300027D1039800F0200018B32068406820F000
:1012400060002168486026492068884201D125480D
:1012500001E04FF04020406820F0A000204A2168C3
:10126000914201D11F4901E04FF040214860012027
:1012700084F84100606C40F002006064204600F099
:1012800034F8049800F00800082827D1029800F0EC
:10129000200018B312492068884201D1114801E0AA
:1012A0004FF04020406820F0A0000D4A2168914294
:1012B00001D10C4901E04FF04021486020684068AE
:1012C00020F0600021684860012084F84100606CD3
:1012D00040F004006064204600F007F806B010BD3E
:1012E0000038004000340040704770472DE9F04757
:1012F000044614B90120BDE8F08794F8410038B9DC
:10130000002084F8400065486063204600F0CEF875
:10131000022084F841002068C06940F6BF7188430C
:101320002168C861022021680862606902283CD0F7
:10133000E06808B9102600E02026A068202800D820
:101340007600012000F0B4F980462069B0F5007FF6
:1013500017D1E06850B1B000B8FBF0F000EB8000AE
:1013600041006069B1FBF0F0451D13E0F000B8FBEF
:10137000F0F000EB800041006069B1FBF0F0451D2A
:1013800008E0B8FBF6F000EB800041006069B1FBBB
:10139000F0F0451D0A20B5FBF0F505F00109A5EBBD
:1013A000090047084FEA092902E002274FF0000927
:1013B000022F01D3FF2F05D9606C40F0100060644C
:1013C000012098E7206940EA090038432168086253
:1013D000606840F40060A1680843E1680843A169BF
:1013E00008432168C96940F6BF72914308432168E8
:1013F000C861206A01284AD12948606329492068C8
:10140000884201D1284801E04FF04020C06940F6F1
:10141000BF718843234A2168914201D1224901E0EA
:101420004FF04021C86102201E4A2168914201D13B
:101430001D4901E04FF0402108621A4920688842A6
:1014400001D1194801E04FF04020C0691FFA80FA2D
:101450006068B0F5007F01D0606810B94FF4807506
:1014600000E00025A089218B0843218908432843F7
:1014700080B240F4006040EA0A0A0A4920688842C3
:1014800001D1094801E04FF04020C0F81CA0002025
:101490006064012084F8410000202CE7E93A00084C
:1014A000A5100008003800400034004010B586B098
:1014B000044600BF002000902248006840F48040AD
:1014C000204908600846006800F48040009000BF92
:1014D00000BF00BF002000901A481038006840F09C
:1014E00002001849103908600846006800F0020040
:1014F000009000BF00BF00BF0020009008460068B9
:1015000040F0040008600846006800F00400009005
:1015100000BF00BF4FF44050019002200290012014
:101520000390032004900520059001A90648FFF7C9
:101530009FFC4C20019001A90448FFF799FC06B0DC
:1015400010BD000040380240000402400008024084
:101550007047704703480068034909780844014907
:1015600008607047040000200C00002010B50A48F5
:10157000006840F40070084908600846006840F4BC
:1015800080600860052000F07FF80F2000F006F86A
:1015900000F02AF8002010BD003C024070B504465F
:1015A0000E4800784FF47A71B1FBF0F00C490968ED
:1015B000B1FBF0F5284601F0FDFB08B1012070BD3C
:1015C000102C07D200222146501E00F01EF80548BC
:1015D000046001E00120F2E70020F0E70C000020A9
:1015E000000000200800002070470146084600283F
:1015F00009DB00F01F0301229A4043099B0003F11D
:10160000E023C3F8002100BF70472DE9F05F80465A
:101610000D461646002707F029FC074639462A469C
:10162000334601F00700C0F1070ABAF1040F02D9EE
:101630004FF0040A01E0C0F1070AD14600F1040AA4
:10164000BAF1070F02D24FF0000A01E0A0F1030A3D
:10165000D4464FF0010A0AFA09FAAAF1010A0AEA85
:10166000020A0AFA0CFA4FF0010B0BFA0CFBABF171
:10167000010B0BEA030B4AEA0B042146404607F034
:10168000FDFBBDE8F09F000000BF00F00702064B25
:1016900019684FF6FF031940044B0B4343EA02213C
:1016A000014B196000BF70470CED00E00000FA0527
:1016B00070B501460020002200230024012934D106
:1016C0001B4D2D6805F400031BB1012B29D11948CE
:1016D00029E0174D2D1F2D6805F48005B5F5800F05
:1016E00008D1134D2D1F2D6805F03F05124EB6FB96
:1016F000F5F207E00E4D2D1F2D6805F03F050F4E4A
:10170000B6FBF5F20A4D7C352D68C5F3881505FB4F
:1017100002F4074D7C352D68C5F30275B4FBF5F076
:1017200001E0002000BF00BF00BF00BF70BD00008F
:10173000083802400080BB0000127A000024F40048
:10174000F8B5044600250026207800F0010020B9F5
:10175000207800F0040004282FD100205B4988661F
:10176000FFF79AFC054606E0FFF796FC401B0228AF
:1017700001D90320F8BD56480068C0F3C0600028B6
:10178000F2D160688101207A41EA007050498431C9
:10179000086001204D498866FFF77EFC054606E09B
:1017A000FFF77AFC401B022801D90320E2E74848F2
:1017B0000068C0F3C0600028F2D0207800F002007A
:1017C00002287DD100BF00200090414840300068D1
:1017D00040F080503E49403108600846006800F003
:1017E0008050009000BF00BF3A48006840F480700D
:1017F00038490860FFF750FC054606E0FFF74CFC4F
:10180000401B022801D90320B4E73248006800F4E5
:1018100080700028F2D02E487030006800F44076C6
:101820004EB3A08900F44070B04224D028487030F4
:10183000006820F4407601202749086000200860F5
:10184000234870300660006800F0010098B1FFF78F
:1018500023FC054608E0FFF71FFC401B41F28831DE
:10186000884201D9032085E7194870300068C0F329
:1018700040000028EFD000BFA08900F44070B0F510
:10188000407F0CD112480830006820F4F810134A49
:10189000E168114008430E490831086007E00C4830
:1018A0000830006820F4F810094908310860084839
:1018B00070300068A189C1F30B010843044900E0BE
:1018C00002E07031086000BF002053E7000047428B
:1018D0000038024000700040400E4742FFFCFF0FFE
:1018E00070B504460D460CB9012070BD584800681B
:1018F00000F00F00A84209D255490D700846006853
:1019000000F00F00A84201D00120EEE7207800F09F
:10191000020002281DD1207800F00400042805D11F
:101920004C48006840F4E0504A490860207800F0D4
:101930000800082805D14748006840F46040454940
:1019400008604448006820F0F000A168084341495D
:101950000860207800F00100A8B36068012807D172
:101960003C4808380068C0F34040B8B90120BCE7E3
:101970006068022802D06068032807D1354808381B
:101980000068C0F3406048B90120AEE7314808382C
:101990000068C0F3400008B90120A6E72D480068A0
:1019A00020F00300616808432A490860FFF774FBD0
:1019B000064609E0FFF770FB801B41F28831884240
:1019C00002D9032091E707E02248006800F00C00EC
:1019D0006168B0EB810FEDD11D48006800F00F0089
:1019E000A84209D91A490D700846006800F00F0096
:1019F000A84201D0012078E7207800F004000428F4
:101A000007D11448006820F4E050E1680843114908
:101A10000860207800F00800082808D10D48006808
:101A200020F46040216940EAC1000A49086000F0E2
:101A30003DF808490968C1F30311074A515CC840E1
:101A4000064908600F20FFF7A9FD00204DE70000C0
:101A5000003C0240083802406E03010800000020EC
:101A600001480068704700000000002000B5FFF743
:101A7000F7FF04490968C1F38221034A515CC84059
:101A800000BD0000083802407E03010800B5FFF7E2
:101A9000E7FF04490968C1F34231034A515CC84079
:101AA00000BD0000083802407E0301082DE9F04720
:101AB000002400250026A1462548006800F00C00FF
:101AC00020B1042805D008283AD105E0DFF8849039
:101AD00039E0DFF8849036E01D48001F006800F010
:101AE0003F041B48001F006800F4800078B11A48CA
:101AF0001749091F0968C1F38811A0FB017001464D
:101B0000224600233846FEF763FB05460EE01148E7
:101B10000F49091F0968C1F38811A0FB0170014634
:101B2000224600233846FEF753FB05460848001FAF
:101B30000068C0F30140401C4600B5FBF6F902E026
:101B4000DFF8109000BF00BF4846BDE8F0870000F6
:101B5000083802400024F40000127A00F8B5044668
:101B60000CB90120F8BD207800F00100002874D0E5
:101B7000F948006800F00C0004280DD0F648006811
:101B800000F00C00082813D1F348001F006800F48F
:101B90008000B0F5800F0BD1EF4808380068C0F323
:101BA0004040002859D06068002856D10120D9E76C
:101BB00000BF6068B0F5803F08D1E748083800688A
:101BC00040F48030E449083908601EE06068B0F5F0
:101BD000A02F0DD1E0480838006840F48020DE498D
:101BE000083908600846006840F4803008600CE05E
:101BF000D9480838006820F48030D749083908608F
:101C00000846006820F48020086000BF606890B13A
:101C1000FFF742FA054606E0FFF73EFA401B64284C
:101C200001D903209EE7CC4808380068C0F3404043
:101C30000028F1D011E0FFF72FFA054606E0FFF784
:101C40002BFA401B642801D903208BE7C2480838CF
:101C50000068C0F340400028F1D1207800F0020075
:101C600002285FD1BC48006800F00C0058B1BA48A7
:101C7000006800F00C0008281CD1B748001F00685D
:101C800000F48000B0B9B44808380068C0F34000E0
:101C900020B1E068012801D0012063E7AE48083890
:101CA000006820F0F800216940EAC100AA4908391B
:101CB000086037E0E06800B30120A8490860FFF73A
:101CC000EBF9054606E0FFF7E7F9401B022801D9CA
:101CD000032047E7A04808380068C0F34000002808
:101CE000F1D09D480838006820F0F800216940EAEA
:101CF000C10099490839086014E00020974908603C
:101D0000FFF7CAF9054606E0FFF7C6F9401B0228AF
:101D100001D9032026E7904808380068C0F3400046
:101D20000028F1D1207800F0080008282CD1606943
:101D3000A8B101208A490860FFF7AEF9054606E020
:101D4000FFF7AAF9401B022801D903200AE78248BD
:101D50006C300068C0F340000028F1D014E000208F
:101D60007F490860FFF798F9054606E0FFF794F908
:101D7000401B022801D90320F4E677486C30006844
:101D8000C0F340000028F1D1207800F004000428BE
:101D900070D1002670483830006800F0805090B94B
:101DA00000BF002000906C483830006840F0805040
:101DB0006949383108600846006800F0805000909A
:101DC00000BF00BF01266748006800F48070B0B90A
:101DD0006448006840F4807062490860FFF75CF96D
:101DE000054606E0FFF758F9401B022801D90320F9
:101DF000B8E65C48006800F480700028F2D000BFAC
:101E0000A068012808D154486830006840F00100FB
:101E10005149683108601DE0A06805280DD14E4881
:101E20006830006840F004004B496831086008469B
:101E3000006840F0010008600CE047486830006826
:101E400020F001004449683108600846006820F02D
:101E50000400086000BFA068A8B1FFF71DF905469F
:101E600009E0FFF719F9401B41F28831884202D995
:101E7000032077E626E0384868300068C0F3400069
:101E80000028EED013E0FFF707F9054608E0FFF75A
:101E900003F9401B41F28831884201D9032061E6F1
:101EA0002D4868300068C0F340000028EFD1012EB3
:101EB00007D129483830006820F080502649383151
:101EC000086000BFA069B8B32348006800F00C00A8
:101ED00008285ED0A069022846D100201F49086664
:101EE000FFF7DAF8054606E0FFF7D6F8401B0228B0
:101EF00001D9032036E6184808380068C0F340606E
:101F00000028F1D1D4E907010843616A40EA811150
:101F10000122A06AC2EB500041EA00412C20005D82
:101F200041EA00600C49091F086001200B4908665E
:101F3000FFF7B2F8054607E02DE0FFF7ADF8401BCC
:101F4000022801D903200DE6034808380068C0F3D1
:101F500040600028F1D01EE00838024000004742EF
:101F6000800E47420070004000200C490866FFF7D1
:101F700093F8054606E0FFF78FF8401B022801D9C9
:101F80000320EFE506480068C0F340600028F2D166
:101F900001E00120E6E50020E4E500000000474202
:101FA0000038024070B58AB004460D460026032072
:101FB00084F83400606C032820D0B5F5805F04D12C
:101FC000A06B40F08050A0631CE0B5F5006F07D116
:101FD000204605F0DFFC0646A06B3043A06311E00D
:101FE0003DB9204605F0A1FC0646A06B3043A06336
:101FF00008E0A06B40F00060A06303E0A06B40F03D
:102000008050A063A06B40B140F2FF50216888630C
:10201000012084F834000AB070BD60680490A068A4
:102020000590E0680690079560690890A06909909E
:1020300007A807C88DE80700206804A90EC904F0A6
:1020400085FE012084F834000020E4E730B5034623
:102050000022586E020E90090870C2F38300487087
:1020600002F003008870586EC0F30742CA70B3F8DC
:102070006400C0F307220A7193F864204A71986ED5
:10208000020E4FF6FF7000EA0210C880986EC0F38F
:102090000742C88840EA1210C88002F00F00087298
:1020A0006820C05AC0F30722D0094872C2F38010DA
:1020B0008872C2F34010C872C2F300100873002087
:1020C0004873586C00283ED19007000D08616820C5
:1020D000C25C086940EA82000861D86E020E086995
:1020E00040EA92100861C2F3C200087502F00700CE
:1020F0004875D86EC0F3074250098875C2F3820054
:10210000C8759007400F08766C20C05AC0F30722AC
:10211000087E40EAD21008760869401C58650C7E9B
:10212000586DA41C0125A540684358650C7A012010
:10213000A0409865D3E91504640A6043D8654FF45C
:1021400000741C6630E0586C012821D16820C25C04
:102150009006800A0861D86E020E086940EA0220E3
:102160000861D86EC0F307420869104308616C200B
:10217000C05AC0F307220869441C4FF48060A4FBD6
:1021800000045865D8654FF400749C651C660BE02C
:1021900040F2FF501C68A063986B40F08050986339
:1021A000012083F8340030BDC2F3801001F8190F0C
:1021B0009006400E48706C20C25C487840EAD2100D
:1021C000487002F07F008870186F020ED009C87046
:1021D000C2F341100871C2F3820048719007000FEA
:1021E0008871186FC0F30742887940EA92108871AD
:1021F000C2F34010C8710020087202F0010048725A
:102200007020C05AC0F30722D0098872C2F3801030
:10221000C872C2F340100873C2F300104873C2F3CF
:102220008100887302F00300C8737020C25C5008FC
:1022300008740120487419390020B4E70246506C34
:102240000860906C4860D06C8860106DC860506DFC
:102250000861906D4861D06D8861106EC861002082
:102260007047F8B504460426002500200090694612
:10227000204605F041FB054615B1A06B2843A0633D
:102280000098C0F343263046F8BD10B504460CB99B
:10229000012010BD94F8340020B90020207720469A
:1022A00000F050F8032084F83400204600F008F8CD
:1022B0000020A0632063012084F834000020E8E7B8
:1022C00030B589B0044600250020039004900590A5
:1022D000069007907620089006A807C88DE80700AA
:1022E000206803A90EC904F031FD002014490860DC
:1022F000206804F045FD01201149A039C1F8A00073
:102300000220FEF7DBFC204605F054FA054645B1F5
:10231000012084F83400A06B2843A063012009B099
:1023200030BD204605F0C8F905463DB1012084F8CE
:102330003400A06B2843A0630120F0E70020EEE703
:10234000A080254210B586B0044600BF0020009052
:102350002948006840F40060274908600846006882
:1023600000F40060009000BF00BF00BF002000909C
:1023700021481438006840F480001F49143908606F
:102380000846006800F48000009000BF00BF00BF56
:10239000002000900846006840F0040008600846ED
:1023A000006800F00400009000BF00BF00BF0020E4
:1023B00000900846006840F0080008600846006881
:1023C00000F00800009000BF00BF4FF4F8500190EB
:1023D0000220029001200390032004900C2005901D
:1023E00001A90648FEF744FD0420019001A9044814
:1023F000FEF73EFD06B010BD443802400008024022
:10240000000C02402DE9F04F87B004468A46904602
:102410001E46DDF840900025FEF73EFE0090AB46DC
:102420005746BAF1000F07D1A06B40F00060A063DF
:10243000012007B0BDE8F08F94F8340001287DD169
:102440000020A06308EB0601E06D814205D9A06B76
:1024500040F00070A0630120EBE7032084F8340013
:1024600000202168C862606C012801D04FEA48282A
:102470004FF40071206804F0E1FC054655B140F2CC
:10248000FF5021688863A06B2843A063012084F873
:102490003400CEE74FF0FF300190700202909020A0
:1024A000039002200490002005900120069001A9CD
:1024B000206804F021FC012E07D902202063414648
:1024C000206804F027FD054606E001202063414610
:1024D000206804F03CFD054655B140F2FF502168EC
:1024E0008863A06B2843A063012084F83400A0E730
:1024F0002AE02068406B00F4004068B14FF0000B08
:1025000006E0206804F041FC47F82B000BF1010BBA
:10251000BBF1080FF5D32037B9F1000F05D0FEF756
:10252000BBFD0099401A48450ED340F2FF50216888
:102530008863A06B40F00040A06300E082E00120CF
:1025400084F83400032074E72068406B40F22A319D
:1025500008400028CDD02068406B00F48070A0B106
:10256000012E12D9606C03280FD0206804F0B6FD4C
:10257000054655B140F2FF5021688863A06B28439F
:10258000A063012084F8340053E72068406B00F01A
:10259000080058B140F2FF5021688863A06B40F0FA
:1025A0000800A063012084F8340042E72068406BF3
:1025B00000F0020058B140F2FF5021688863A06B20
:1025C00040F00200A063012084F8340031E7206865
:1025D000406B00F0200058B140F2FF502168886342
:1025E000A06B40F02000A063012084F8340020E7B5
:1025F00019E0206804F0C9FB38603F1DB9F1000FF5
:1026000005D0FEF749FD0099401A48450BD340F22A
:10261000FF5021688863A06B40F00040A063012058
:1026200084F8340005E72068406B00F400100028AF
:10263000DFD140F2FF5021688863012084F8340024
:102640000020F6E6A06B40F00050A0630120F0E609
:102650002DE9F04F87B00446884617461E46DDF840
:1026600040B00025FEF718FD0090A946C246B8F11B
:10267000000F07D1A06B40F00060A063012007B0FD
:10268000BDE8F08F94F8340001287DD10020A063CC
:10269000B919E06D814205D9A06B40F00070A063CC
:1026A0000120ECE7032084F8340000202168C86290
:1026B000606C012800D07F024FF40071206804F0A4
:1026C000BDFB054655B140F2FF5021688863A06B01
:1026D0002843A063012084F83400D0E7012E07D9F5
:1026E000202020633946206804F016FD054606E0E8
:1026F000102020633946206804F02BFD054655B1B3
:1027000040F2FF5021688863A06B2843A06301203A
:1027100084F83400B3E74FF0FF300190700202906C
:10272000902003900020049005900120069001A9BC
:10273000206804F0E1FA2AE02068406B00F4804051
:1027400070B14FF0000906E00AEB8901206804F03F
:1027500034FB09F10109B9F1080FF5D30AF1200A98
:10276000BBF1000F05D0FEF797FC0099401A5845C1
:102770000DD340F2FF5021688863A06B2843A0630B
:10278000012084F8340000E05EE0032077E7206851
:10279000406B40F21A3108400028CDD02068406BD1
:1027A00000F48070A0B1012E12D9606C03280FD004
:1027B000206804F093FC054655B140F2FF502168B3
:1027C0008863A06B2843A063012084F8340056E797
:1027D0002068406B00F0080058B140F2FF502168BB
:1027E0008863A06B40F00800A063012084F83400E7
:1027F00045E72068406B00F0020058B140F2FF50FE
:1028000021688863A06B40F00200A063012084F877
:10281000340034E72068406B00F0100058B140F2FB
:10282000FF5021688863A06B40F01000A063012076
:1028300084F8340023E740F2FF50216888630120C8
:1028400084F8340000201AE7A06B40F00050A06329
:10285000012014E710B504460CB9012010BD606AD0
:1028600000B900BFA06AB0F5005F00D100BF94F8C6
:10287000510028B9002084F85000204600F03AF8B2
:10288000022084F851002068006820F04000216890
:102890000860D4E901010843E1680843216908435D
:1028A00061690843218B01F400710843E169084321
:1028B000216A0843A16A0843216808600421A069CD
:1028C00001EA1040616A084321684860A06AB0F5D7
:1028D000005F02D12168E06A08612068C06920F4C5
:1028E00000602168C86100206065012084F8510003
:1028F0000020B3E710B586B0044600BF002000906A
:102900001748006840F00200154908600846006852
:1029100000F00200009000BF00BF00BF0020009048
:102920000F481430006840F480500D49143108609D
:102930000846006800F48050009000BF00BF3820B7
:1029400001900220029001200390022004900520B3
:10295000059001A90348FEF78BFA06B010BD0000F0
:1029600030380240000402402DE9FF5F04468846EB
:1029700091461D460E9E012002900020019000BF4E
:1029800094F85000012803D1022004B0BDE8F09F64
:10299000012084F8500000BFFEF77EFB074694F844
:1029A00051B060680390AA46BBF1010F0BD00398A9
:1029B000B0F5827F04D1A06810B9BBF1040F02D03A
:1029C000022001902AE1B8F1000F03D0B9F1000F05
:1029D00000D015B90120019020E194F8510004289D
:1029E00002D0052084F8510000206065C4F83890BA
:1029F000E587A587C4F83080E586A58620646064F5
:102A0000A06AB0F5005F0DD100BF2068006820F417
:102A10000050216808602068006840F40050216878
:102A2000086000BF2068006800F04000402805D022
:102A30002068006840F0400021680860E068B0F558
:102A4000006F56D1606810B1BAF1010F09D1206B47
:102A500000882168C860206B801C2063E08E401EC7
:102A6000E0863FE02068806800F0020002281CD168
:102A7000E08ED0B10298012817D1206B0088216820
:102A8000C860206B801C2063E08E401EE086002022
:102A90000290E08E48B9A06AB0F5005F05D12068C9
:102AA000006840F48050216808602068806800F069
:102AB000010068B1E08F58B12068C068A16B088040
:102AC000A06B801CA063E08F401EE0870120029075
:102AD000FEF7E2FAC01BB04204D3701C10B1032011
:102AE00001909BE0E08E0028BCD1E08F0028B9D196
:102AF00056E0606810B1BAF1010F09D1206B00787F
:102B000021680873206B401C2063E08E401EE08625
:102B100040E02068806800F0020002281CD1E08EAE
:102B2000D0B10298012817D1206B00782168087372
:102B3000206B401C2063E08E401EE0860020029047
:102B4000E08E48B9A06AB0F5005F05D12068006842
:102B500040F48050216808602068806800F001001F
:102B600068B1E08F58B12068C068A16B0870A06B95
:102B7000401CA063E08F401EE08701200290FEF71A
:102B80008BFAC01BB04201D3701C00B916B90320E8
:102B9000019043E0E08E0028BBD1E08F0028B8D13F
:102BA000A06AB0F5005F10D13346012211462046DD
:102BB000009704F0E5FF30B1606D40F00200606501
:102BC000032001902AE02068C0682068806800F037
:102BD0001000102809D1606D40F0020060654FF6CA
:102BE000EF7021688860012001903A463146204606
:102BF00004F090FF20B101200190202060650DE0DD
:102C0000A06850B900BF002000902068C068009004
:102C100020688068009000BF00BF00BF012084F8DA
:102C2000510000BF002084F8500000BF0198ACE6BE
:102C300070B504460E4615460CB9012070BD94F8D7
:102C4000490028B9002084F84800204600F01CF80C
:102C500004F108012068FDF7E1FE3146A268206812
:102C6000FDF70AFF2946236BD4E90102FDF7B2FE06
:102C7000A168206850F8210040F00100A268216896
:102C800041F822000020D9E710B586B0044600BF05
:102C9000002000903848006840F001003649086084
:102CA0000846006800F00100009000BF00BF00BFB0
:102CB0000020009030480838006840F008002E4995
:102CC000083908600846006800F00800009000BF5E
:102CD00000BF00BF002000900846006840F01000D0
:102CE00008600846006800F01000009000BF00BFB8
:102CF00000BF002000900846006840F020000860F7
:102D00000846006800F02000009000BF00BF00BF30
:102D1000002000900846006840F040000860084627
:102D2000006800F04000009000BF00BF4CF233701C
:102D300001900220029001200390032004900C20B7
:102D4000059001A90D48FEF793F84FF680700190A9
:102D500001A90B48FEF78CF84FF48050019001A9AF
:102D60000848FEF785F84FF48050019001A9064805
:102D7000FEF77EF806B010BD38380240000C024065
:102D8000001002400014024000180240042808D13C
:102D90004FF0E021096941F004014FF0E022116198
:102DA00007E04FF0E021096921F004014FF0E02233
:102DB0001161704770B504462546681EB0F1807FEA
:102DC00001D301200FE0681E4FF0E02148610F2180
:102DD0004FF0FF3006F052F800204FF0E0218861FC
:102DE00007200861002070BD7047704710B5044689
:102DF0000CB9012010BD94F83D0028B9002084F8DA
:102E00003C00204600F00CF8022084F83D00211D13
:102E1000206805F0FDF8012084F83D000020E9E776
:102E2000704701460868C06840F001000B68D86030
:102E30000868806800F00702062A05D00868006864
:102E400040F001000B6818600020704710B5044680
:102E50005049206888421DD14F480068D8B14F487A
:102E60000068006A4FF6F57108404C49096808622D
:102E70004A480068006A40F0020048490968086250
:102E800000204649096848624548007840F0100033
:102E9000434908707CE00021404800F09DFA414918
:102EA00008803E480068006A4FF6F57108403B49CB
:102EB0000968086239480068006A38490968086288
:102EC0003748007800F0100000285BD034480078C4
:102ED00000F08000F0B333480088B0F5967F0DDD38
:102EE00030480088B0F5487F08DA2F480068400075
:102EF0002D49086008460068086043E029480088BA
:102F0000B0F5AF6F0FDD27480088B0F5E16F0ADA42
:102F1000254800684000244908600846006840F0E1
:102F2000010008602EE01F48008840F698018842A2
:102F300028DD1C48008840F62821884222DA1B48F8
:102F40000078401C194908701548007800F0F0001E
:102F5000134900E001E0087014E01248008841F2D3
:102F6000680188420EDD0F48008841F25C218842EA
:102F700008DA0B48007840F080000949087000200A
:102F80000A4908700648007820F0100004490870CB
:102F900010BD00000000014020024042181900202E
:102FA000980000209A0000209C000020A000002033
:102FB0002DE9F04104460D46164600BF94F83C004A
:102FC000012802D10220BDE8F081012084F83C00F4
:102FD00000BF022084F83D0096B9EB68D5E90012E5
:102FE000206805F093F82068806920F00C002168C3
:102FF000886120688069A9680843216888613DE08C
:10300000042E13D1EB68D5E90012206805F0C6F84C
:103010002068806920F440602168886120688069A8
:10302000A96840EA01202168886127E0082E12D1B2
:10303000EB68D5E90012206805F0CDF82068C0697A
:1030400020F00C002168C8612068C069A9680843A5
:103050002168C86112E0EB68D5E90012206805F02C
:10306000D6F82068C06920F440602168C8612068F3
:10307000C069A96840EA01202168C861012084F87C
:103080003D0000BF002084F83C0000BF00BF9AE76D
:1030900010B504460CB9012010BD94F83D0028B9C4
:1030A000002084F83C00204600F00CF8022084F850
:1030B0003D00211D206804F0ABFF012084F83D0095
:1030C0000020E9E710B586B0044600BF002000905C
:1030D0001F48006840F001001D490860084600686C
:1030E00000F00100009000BF00BF00BF0020009072
:1030F00017481438006840F0010015491439086079
:103100000846006800F00100009000BF00BF88156D
:1031100001900220029001200390032004900120DE
:10312000059001A90B48FDF7A3FE032201211B20F6
:10313000FEF76BFA1B20FEF758FA03220121192033
:10314000FEF763FA1920FEF750FA06B010BD000032
:10315000443802400000024070B504460D4635B1C7
:10316000042D0BD0082D10D00C2D1CD114E020689C
:10317000C06840F002002168C86015E02068C0689F
:1031800040F004002168C8600EE02068C06840F08C
:1031900008002168C86007E02068C06840F010009F
:1031A0002168C86000E000BF00BF012229462068F6
:1031B00004F09AFF2068806800F00706062E05D00C
:1031C0002068006840F0010021680860002070BDA0
:1031D00010B5044620680069C0F34000D8B12068EB
:1031E000C068C0F34000B0B16FF002002168086110
:1031F000012020772068806900F0030018B1204684
:10320000FFF724FE05E0204600F0ADF8204600F070
:10321000ABF80020207720680069C0F38000D8B1A7
:103220002068C068C0F38000B0B16FF0040021686E
:103230000861022020772068806900F4407018B18E
:103240002046FFF703FE05E0204600F08CF82046FC
:1032500000F08AF80020207720680069C0F3C000E1
:10326000D8B12068C068C0F3C000B0B16FF00800EA
:1032700021680861042020772068C06900F00300FD
:1032800018B12046FFF7E2FD05E0204600F06BF89C
:10329000204600F069F80020207720680069C0F31C
:1032A0000010D8B12068C068C0F30010B0B16FF052
:1032B000100021680861082020772068C06900F4A8
:1032C000407018B12046FFF7C1FD05E0204600F030
:1032D0004AF8204600F048F800202077206800696E
:1032E00000F0010058B12068C06800F0010030B162
:1032F0006FF0010021680861204600F037F820686F
:103300000069C0F3C01058B12068C068C0F3C01095
:1033100030B16FF08000216808612046FFF764FD3E
:1033200020680069C0F3801058B12068C068C0F3FD
:10333000801030B16FF0400021680861204600F035
:1033400064F820680069C0F3401058B12068C06874
:10335000C0F3401030B16FF02000216808612046B2
:10336000FFF743FD10BD704770470000184A016821
:1033700091422BD11749097801F0800131B31549E9
:10338000097821F01001134A11701146097801F0F3
:103390000F0121B91146097841F0400111700D4922
:1033A000097801F00F010E2905DA0A490978491C4C
:1033B000084A11700AE00749097821F08001054A9E
:1033C00011701146097801F0F0011170704700008A
:1033D00000000140980000200246002031B104297D
:1033E00007D0082908D00C290CD108E01368586BC5
:1033F00009E01368986B06E01368D86B03E0136864
:10340000186C00E000BF00BF70477047704701466E
:103410000022002391F8392091F83A3042EA030063
:10342000704700002DE9F0470446206805682068D1
:10343000C668206847694FF00008C14605F00F08CC
:10344000B8F1000F0AD105F0200038B106F02000D5
:1034500020B1204604F054FFBDE8F087B8F1000F1A
:103460006ED007F0010018B906F49070002867D0FC
:1034700005F0010030B106F4807018B1E06B40F047
:103480000100E06305F0040030B107F0010018B15D
:10349000E06B40F00200E06305F0020030B107F09D
:1034A000010018B1E06B40F00400E06305F0080093
:1034B00030B107F0010018B1E06B40F00800E063A4
:1034C000E06B70B305F0200028B106F0200010B1C9
:1034D000204604F015FF20684069C0F38019E06BB6
:1034E00000F0080010B9B9F1000F23D0204604F015
:1034F000E7FE2068406900F04000402816D12068AF
:10350000406920F0400021684861606B50B1174865
:10351000616B0865606BFDF70FFB10B1606B016DAF
:1035200088470CE02046FFF771FF08E02046FFF7D0
:103530006DFF04E02046FFF769FF0020E0638BE7A2
:1035400005F0800030B106F0800018B1204605F08B
:10355000DFF881E705F0400030B106F0400018B117
:10356000204604F0BDFE77E700BF75E7AD82000896
:1035700010B504460CB9012010BDA06900B100E0EF
:1035800000BF94F8390028B9002084F8380020469C
:1035900000F028F8242084F839002068C06820F45E
:1035A00000502168C860204604F0FEFE20680069D3
:1035B00020F49040216808612068406920F02A00CA
:1035C000216848612068C06840F400502168C860E4
:1035D0000020E063202084F8390084F83A000020BD
:1035E000CAE7000010B586B0044622492068884228
:1035F0003ED100BF002000901F48006840F001004D
:103600001D4908600846006800F00100009000BFF6
:1036100000BF00BF0020009017481430006840F041
:1036200010001549143108600846006800F01000C9
:10363000009000BF00BF48150190022002900120B9
:103640000390022004900720059001A90B48FDF784
:103650000FFC4FF48060019001A90848FDF708FCB9
:103660002520FDF7C2FF032211462520FDF7CDFFDF
:1036700006B010BD0010014030380240000002408A
:1036800010B5034693F83A0020282FD101B10AB9AA
:10369000012010BD00BF93F83800012801D102209D
:1036A000F7E7012083F8380000BF99629A85DA8530
:1036B0000020D863222083F83A0000BF002083F85E
:1036C000380000BF1868C06840F480701C68E06073
:1036D0001868406940F001001C6860611868C068A3
:1036E00040F020001C68E0600020D2E70220D0E714
:1036F0001D4A0168914236D11C49098801F40041F4
:1037000089BB1A49098801F4804171B118490978C7
:103710000A2903D00021154A118024E013490988A1
:1037200041F40041114A11801DE0114909780D2929
:1037300006D10E49098841F480410C4A118012E0FB
:103740000B490978094A1288C2F30D02094B9954B2
:1037500006490988491C054A118011460988C7296C
:1037600001DD002111807047001001401800002089
:103770001A000020FC020020704700BFFEE7000096
:103780002DE9F04107460C4615461E4611481249E0
:103790000860084644608760C6604FF400710161AC
:1037A0000221416185610021C161FDF79FFD09484A
:1037B000001D006840F002000649091D0860064827
:1037C0000068C06940F4806003490968C861BDE8C9
:1037D000F081000000380040701800207FB50646D8
:1037E0000024002500BF0CE00A20B6FBF0F004EB3B
:1037F0008401214A32F81110884200D103E0601C94
:10380000C4B20B2CF0D300BF0B2C02D1012004B0AA
:1038100070BD0120009004EB8400174901EB4000CB
:103820004088019004EB840001EB40008188029104
:103830006846FDF785FF1148006840F080600F4939
:10384000086000BF0D48006800F000600028F9D053
:1038500004EB8400084901EB4000C58804EB8400B8
:1038600001EB4000008945EA002545F40075044855
:1038700005600020CBE700008E03010800380240FD
:1038800020380040F8B504460D46164600BF00201B
:1038900000903C48006840F400103A49086008462F
:1038A000006800F40010009000BF00BF00BF364861
:1038B0003649886308463449886300BF3448086045
:1038C000002048604021304881600021C1604FF4F1
:1038D0008061016149004161890081614911C161D3
:1038E0004902016200214162C1620163FDF738F9BA
:1038F0002548FDF76DF92B46264A214622480096B9
:10390000FDF7DCF820480068006820F001001E493F
:10391000096808600A2006F025FA1B48006800685C
:1039200040F01000184909680860174800681A49F3
:10393000884204D9202018494C39086019E01248FF
:10394000006813494831884204D92020124950396F
:1039500008600EE00C4800680D491839884204D907
:1039600020200B497039C86003E0202008497039D5
:103970008860002211460F20FDF747FE0F20FDF75B
:1039800034FEF8BD30380240B8180020701800200E
:10399000706002400C3800405864024010B5044684
:1039A0002068C06881B2E26A901CE0621180608E7B
:1039B000401E6086608E68B92068406820F0600014
:1039C00021684860608D28B9012084F841002046B4
:1039D000FDF78AFC10BD000010B5044617492068A9
:1039E000884201D1164801E04FF04020C06881B202
:1039F000E26A901CE0621180608E401E6086608EDC
:103A0000D8B90E492068884201D10D4801E04FF035
:103A10004020406820F06000084A2168914201D1AE
:103A2000074901E04FF040214860608D28B901202E
:103A300084F841002046FDF757FC10BD00380040D7
:103A40000034004010B50446616A881C6062088832
:103A50002168C860608D401E6085608D68B92068EF
:103A6000406820F0A00021684860608E28B90120DD
:103A700084F841002046FDF737FC10BD10B5044620
:103A8000616A881C60620888154A2168914201D1E8
:103A9000144901E04FF04021C860608D401E6085F0
:103AA000608DD8B90E492068884201D10D4801E0E7
:103AB0004FF04020406820F0A000094A2168914260
:103AC00001D1084901E04FF040214860608E28B9DB
:103AD000012084F841002046FDF706FC10BD0000DF
:103AE00000380040003400401CB50446206880685F
:103AF000019094F84100042830D1019800F00100B1
:103B000038B120684068C0F3801010B1204600F042
:103B100071F8019800F0400040281FD120684068EB
:103B2000C0F34010D0B12068406820F060002168E8
:103B3000486000BF002000902068C06800902068A6
:103B40008068009000BF00BF012084F84100606CD5
:103B500040F0020060642046FDF7C7FB94F8410086
:103B600003282ED1019800F00200022807D1206816
:103B70004068C0F3C01010B1204600F056F801981C
:103B800000F0080008281CD120684068C0F34010ED
:103B9000B8B12068406820F0A0002168486000BFEC
:103BA0000020009020688068009000BF00BF0120C6
:103BB00084F84100606C40F0040060642046FDF72A
:103BC00094FB1CBD04480068006840F001000249F5
:103BD0000968086070470000B818002004480068B1
:103BE000006820F001000249096808607047000081
:103BF000B818002010B504462068C068E16A088043
:103C0000E06A801CE062608E401E6086608E58B95B
:103C10002068406820F0600021684860012084F836
:103C200041002046FDF794FC10BD10B50446606AC3
:103C300000882168C860606A801C6062608D401ED8
:103C40006085608D58B92068406820F0A000216828
:103C50004860012084F841002046FDF77AFC10BD41
:103C600000B587B000BF002001901048006840F008
:103C700002000E4908600846006800F0020001904A
:103C800000BF00BF4FF440700290012003900490E9
:103C90000220059002A90648FDF7EAF8012005492F
:103CA00008600549C1F8A00207B000BD30380240E5
:103CB00000040240A48240420080404270B50446A5
:103CC0001548006820F44020134908600846006841
:103CD00040F480200860002010490860002517E0AB
:103CE000E0090E49091D08606006040E022006F076
:103CF00039F801200A49C1F8A002022006F032F882
:103D0000002006490860022006F02CF8681CC5B2A5
:103D1000082DE5DB70BD000000040240A082404297
:103D20000080404210B50F48006820F440200D4943
:103D300008600846006840F48020086001200A49B5
:103D400008600A49C1F8A002042006F00BF8002020
:103D500005490860042006F005F800200349C1F871
:103D6000A00210BD00040240A482404200804042F4
:103D700010B50F48006820F440200D49086008463F
:103D8000006840F48020086000200A4908600A4961
:103D9000C1F8A402042005F0E5FF012005490860F0
:103DA0000549C1F8A402042005F0DCFF10BD0000A5
:103DB00000040240A08240420080404210B500242E
:103DC0001348006820F44020114908600846006844
:103DD000086001200F49086005F0C4FF01200E496A
:103DE000C1F8A00205F0BEFF07E0601CC4B2FA2CC7
:103DF00003DDFFF7BDFF012010BD064880380068D5
:103E00000028F2D10349091F086000BFF4E7000051
:103E100000040240A48240420080404200B587B0C6
:103E200000BF002001901B48006840F001001949C4
:103E300008600846006800F00100019000BF00BF64
:103E400000BF002001900846006840F010000860A4
:103E50000846006800F01000019000BF00BF01207C
:103E6000029000200390022004900320059002A9F4
:103E70000948FCF7FDFF1C2002900020039002205F
:103E800004900320059002A90448FCF7F1FF07B055
:103E900000BD000030380240000002400010024027
:103EA00010B50446012C01D12C4908702B4800782C
:103EB000002837D010212A48FDF7DAF878B1082118
:103EC0002748FDF7D5F850B104212548FDF7D0F873
:103ED00028B101212348FDF7CBF8012822D10A207F
:103EE00005F034FF00201D49087010211C48FDF723
:103EF000BFF808B9012010BD08211948FDF7B8F82E
:103F000008B90220F7E704211548FDF7B1F808B910
:103F10000320F0E701211348FDF7AAF801281BD17F
:103F20000420E8E710210E48FDF7A2F8012813D17C
:103F300008210B48FDF79CF801280DD10421084801
:103F4000FDF796F8012807D101210648FDF790F802
:103F500010B90120014908700020CCE71B000020A7
:103F6000001002400000024070B5044600260948D7
:103F70000588408845430021084602F06DFD02F0A7
:103F800013FE00BF02E004490C80761CAE42FAD357
:103F900070BD0000540400208000006C10B5044681
:103FA00049488471002C45D1F020474908804FF4DE
:103FB000A07048800846808845F21051884210D190
:103FC0004FF43050404908814FF4285048814FF455
:103FD0002C5088814FF4F07008804FF4487048806E
:103FE0001AE03948808841F6631188420DD12C20AF
:103FF000354908812B2048812A2088814FF4F070B0
:1040000008804FF44870488006E02C202E49088133
:104010002A2048812B2088812B48808845F2103146
:1040200088424CD14FF4A070274908804FF4F070BB
:10403000488044E04FF4A07023490880F020488075
:104040000846808845F21051884210D14FF4305014
:104050001D4908814FF4285048814FF42C50888125
:104060004FF4487008804FF4F07048801AE016480A
:10407000808841F6631188420DD12C2012490881B5
:104080002A2048812B2088814FF4487008804FF403
:10409000F070488006E02C200B4908812A204881D6
:1040A0002B2088810848808845F21031884206D14B
:1040B0004FF4F070044908804FF4A070488000204D
:1040C00002F0B0FB10BD00005404002000B595B014
:1040D00000BF00200190FE48006840F00200FC494B
:1040E00008600846006800F00200019000BF00BFB1
:1040F0004FF4004010900120119012900320139073
:1041000010A9F448FCF7B4FE4FF02040F2490860D3
:10411000F2484860062088600021EF48C1600161D4
:104120001021416100218161C16141624FF48051E0
:1041300081620021C1624FF480410163002141632B
:1041400081634FF48011C1630F20099000200A9011
:104150003C200B9000200F90059009200290002039
:104160000390082004900020089002AA09A9DA48C8
:10417000FEF75EFD322005F0E9FDD32002F008FDD8
:1041800002F016FBD649888002F012FBD4498880E1
:1041900002F00EFBD2498880084680884FF6FF71F6
:1041A00001EA0020CE49888002F002FBCC498988D0
:1041B0000843CB4988800846808849F241318842CB
:1041C0007DD0042002F0E4FC02F0F2FAC4498880B9
:1041D00002F0EEFAC249888002F0EAFAC04988800B
:1041E000084680884FF6FF7101EA0020BC498880AC
:1041F00002F0DEFABA4989880843B949888008463E
:10420000808848F25251884203D147F28970B449FC
:104210008880B348808847F289718842D0D0D42002
:1042200002F0B6FC02F0C4FAAD49888002F0C0FA90
:10423000AB49888002F0BCFAA9498880084680888A
:104240004FF6FF7101EA0020A549888002F0B0FA1C
:10425000A34989880843A24988800846808845F296
:10426000103188426BD055214FF4704002F0A6FC0B
:10427000AA214FF2010002F0A1FC52214FF20200EC
:1042800002F09CFC08214FF2030002F097FC012190
:104290004FF2040002F092FC4FF4454002F078FC2B
:1042A00002F086FA8E498880084680884FF6FF71B2
:1042B00001EA00208A4988804CF2015000E03EE08B
:1042C00002F066FC02F074FA854989880843844943
:1042D0008880052005F03AFD81488088B0F5004FC0
:1042E00003D145F210507E4988807D48808845F290
:1042F0001051884223D0A12002F04AFC02F058FA63
:104300007749888002F054FA754988800846808889
:104310004FF6FF7101EA00207149888002F048FAE7
:104320006F49898808436E4988800846808845F22D
:104330006171884203D141F66310694988806848F9
:10434000818868A004F082FD6548808849F2413187
:1043500088427CD1CF2002F01BFC002002F00CFC34
:10436000C12002F009FC302002F006FCED2002F032
:104370000FFC642002F000FC032002F0FDFB122081
:1043800002F0FAFB812002F0F7FBE82002F000FCCB
:10439000852002F0F1FB102002F0EEFB7A2002F003
:1043A000EBFBCB2002F0F4FB392002F0E5FB2C20E4
:1043B00002F0E2FB002002F0DFFB342002F0DCFB25
:1043C000022002F0D9FBF72002F0E2FB202002F0ED
:1043D000D3FBEA2002F0DCFB002002F0CDFB002042
:1043E00002F0CAFBC02002F0D3FB1B2002F0C4FB8A
:1043F000C12002F0CDFB012002F0BEFBC52002F07F
:10440000C7FB302002F0B8FB302002F0B5FBC7201C
:1044100002F0BEFBB72002F0AFFB362002F0B8FB83
:10442000482002F0A9FB3A2002F0B2FB552002F02E
:10443000A3FBB12002F0ACFB002002F09DFB1A2090
:1044400002F09AFBB62002F0A3FB0A2000E0ACE0E9
:1044500002F092FBA22002F08FFBF22002F098FB08
:10446000002002F089FB262002F092FB012002F0DE
:1044700083FBE02002F08CFB0F2002F07DFB2A2062
:1044800002F07AFB282002F077FB082002F074FB90
:104490000E2002F071FB082002F06EFB542002F0A7
:1044A0006BFBA92002F068FB432002F065FB0A20A9
:1044B00002F062FB0F2002F05FFB002002F05CFBC9
:1044C000002002F059FB002002F056FB002011E012
:1044D000303802400004024004040020040100A01F
:1044E00054040020204C43442049443A25780D0AC6
:1044F0000000000002F040FBE12002F049FB002038
:1045000002F03AFB152002F037FB172002F034FBD3
:10451000072002F031FB112002F02EFB062002F0F2
:104520002BFB2B2002F028FB562002F025FB3C2021
:1045300002F022FB052002F01FFB102002F01CFB02
:104540000F2002F019FB3F2002F016FB3F2002F083
:1045500013FB0F2002F010FB2B2002F019FB0020B0
:1045600002F00AFB002002F007FB012002F004FB2E
:104570003F2002F001FB2A2002F00AFB002002F09B
:10458000FBFA002002F0F8FA002002F0F5FAEF2022
:1045900002F0F2FA112002F0FBFA782005F0D6FBC7
:1045A000292002F0F5FA02F0A6B8FE48808847F20A
:1045B000897188427ED1112002F0EAFA782005F054
:1045C000C5FB362002F0E4FA002002F0D5FA3A20CA
:1045D00002F0DEFA052002F0CFFAB22002F0D8FA9B
:1045E0000C2002F0C9FA0C2002F0C6FA002002F0FA
:1045F000C3FA332002F0C0FA332002F0BDFAB7202C
:1046000002F0C6FA352002F0B7FABB2002F0C0FA79
:10461000322002F0B1FAC02002F0BAFA0C2002F007
:10462000ABFAC22002F0B4FA012002F0A5FAC320CE
:1046300002F0AEFA102002F09FFAC42002F0A8FAAD
:10464000202002F099FAC62002F0A2FA0F2002F010
:1046500093FAD02002F09CFAA42002F08DFAA12057
:1046600002F08AFAE02002F093FAD02002F084FAF5
:10467000002002F081FA022002F07EFA072002F008
:104680007BFA0A2002F078FA282002F075FA32202C
:1046900002F072FA442002F06FFA422002F06CFA43
:1046A000062002F069FA0E2002F066FA122002F0EB
:1046B00063FA00E054E0142002F05EFA172002F0E2
:1046C0005BFAE12002F064FAD02002F055FA0020F3
:1046D00002F052FA022002F04FFA072002F04CFAE0
:1046E0000A2002F049FA282002F046FA312002F0AE
:1046F00043FA542002F040FA472002F03DFA0E201F
:1047000002F03AFA1C2002F037FA172002F034FACD
:104710001B2002F031FA1E2002F02EFA2A2002F0AD
:1047200037FA002002F028FA002002F025FA0020D3
:1047300002F022FAEF2002F01FFA2B2002F028FAF2
:10474000002002F019FA002002F016FA012002F00F
:1047500013FA3F2002F010FA292002F019FA22E79A
:104760009048808845F21031884240F07C87ED20E7
:1047700002F00EFA012002F0FFF9FE2002F0FCF92F
:10478000EE2002F005FADE2002F0F6F9212002F018
:10479000F3F9F12002F0FCF9012002F0EDF9DF203D
:1047A00002F0F6F9102002F0E7F9C42002F0F0F967
:1047B0008F2002F0E1F9C62002F0EAF9002002F0B1
:1047C000DBF9E22002F0D8F9E22002F0D5F9E2208C
:1047D00002F0D2F9BF2002F0DBF9AA2002F0CCF9F6
:1047E000B02002F0D5F90D2002F0C6F9002002F049
:1047F000C3F90D2002F0C0F9002002F0BDF911202C
:1048000002F0BAF9002002F0B7F9192002F0B4F969
:10481000002002F0B1F9212002F0AEF9002002F0F0
:10482000ABF92D2002F0A8F9002002F0A5F93D20F7
:1048300002F0A2F9002002F09FF95D2002F09CF93D
:10484000002002F099F95D2002F096F9002002F0B4
:1048500093F9B12002F09CF9802002F08DF900203C
:1048600002F08AF98B2002F087F9002002F084F927
:10487000962002F081F9002002F07EF9B22002F0C9
:1048800087F9002002F078F9002002F075F9022083
:1048900002F072F9002002F06FF9032002F06CF9C7
:1048A000002002F069F9B32002F072F9002002F052
:1048B00063F9002002F060F9002002F05DF90020A9
:1048C00002F05AF9002002F057F9002002F054F9E2
:1048D000002002F051F9002002F04EF9002002F011
:1048E0004BF9002002F048F9002002F045F90020C1
:1048F00002F042F9002002F03FF9002002F03CF9FA
:10490000002002F039F9002002F036F9002002F010
:1049100033F9002002F030F9002002F02DF90020D8
:1049200002F02AF9002002F027F9002002F024F911
:10493000002002F021F9002002F01EF9B42002F05C
:1049400027F98B2002F018F9002002F015F99620C3
:1049500002F012F9002002F00FF9A12002F00CF988
:10496000002002F009F9B52002F012F9022002F04D
:1049700003F9002002F000F9032002F0FDF8002006
:1049800002F0FAF8042002F0F7F8002002F0F4F840
:10499000B62002F0FDF8002002F0EEF8002002F050
:1049A000EBF801E054040020B72002F0F1F80020F9
:1049B00002F0E2F8002002F0DFF83F2002F0DCF81D
:1049C000002002F0D9F85E2002F0D6F8002002F0B4
:1049D000D3F8642002F0D0F8002002F0CDF88C204B
:1049E00002F0CAF8002002F0C7F8AC2002F0C4F8C8
:1049F000002002F0C1F8DC2002F0BEF8002002F036
:104A0000BBF8702002F0B8F8002002F0B5F8902052
:104A100002F0B2F8002002F0AFF8EB2002F0ACF8A0
:104A2000002002F0A9F8DC2002F0A6F8002002F035
:104A3000A3F8B82002F0ACF8002002F09DF80020A6
:104A400002F09AF8002002F097F8002002F094F8A3
:104A5000002002F091F8002002F08EF8002002F011
:104A60008BF8002002F088F8BA2002F091F8242098
:104A700002F082F8002002F07FF8002002F07CF8BB
:104A8000002002F079F8C12002F082F8202002F024
:104A900073F8002002F070F8542002F06DF8002046
:104AA00002F06AF8FF2002F067F8002002F064F8D4
:104AB000C22002F06DF80A2002F05EF8002002F039
:104AC0005BF8042002F058F8002002F055F8C320EB
:104AD00002F05EF83C2002F04FF8002002F04CF8A3
:104AE0003A2002F049F8002002F046F8392002F09E
:104AF00043F8002002F040F8372002F03DF8002093
:104B000002F03AF83C2002F037F8002002F034F8C6
:104B1000362002F031F8002002F02EF8322002F0A8
:104B20002BF8002002F028F82F2002F025F80020B2
:104B300002F022F82C2002F01FF8002002F01CF8EE
:104B4000292002F019F8002002F016F8262002F0C1
:104B500013F8002002F010F8242002F00DF80020D5
:104B600002F00AF8242002F007F8002002F004F80E
:104B7000232002F001F8002001F0FEFF3C2001F0AC
:104B8000FBFF002001F0F8FF362001F0F5FF0020C8
:104B900001F0F2FF322001F0EFFF002001F0ECFF06
:104BA0002F2001F0E9FF002001F0E6FF2C2001F0AA
:104BB000E3FF002001F0E0FF292001F0DDFF0020ED
:104BC00001F0DAFF262001F0D7FF002001F0D4FF2A
:104BD000242001F0D1FF002001F0CEFF242001F0BD
:104BE000CBFF002001F0C8FF232001F0C5FF00200B
:104BF00001F0C2FFC42001F0CBFF622001F0BCFF36
:104C0000002001F0B9FF052001F0B6FF002001F0FF
:104C1000B3FF842001F0B0FF002001F0ADFFF020D1
:104C200001F0AAFF002001F0A7FF182001F0A4FF67
:104C3000002001F0A1FFA42001F09EFF002001F060
:104C40009BFF182001F098FF002001F095FF5020F5
:104C500001F092FF002001F08FFF0C2001F08CFF8B
:104C6000002001F089FF172001F086FF002001F0ED
:104C700083FF952001F080FF002001F07DFFF320ED
:104C800001F07AFF002001F077FFE62001F074FFC9
:104C9000002001F071FFC52001F07AFF322001F001
:104CA0006BFF002001F068FF442001F065FF002049
:104CB00001F062FF652001F05FFF002001F05CFF62
:104CC000762001F059FF002001F056FF882001F006
:104CD00053FF002001F050FFC62001F059FF2020B3
:104CE00001F04AFF002001F047FF172001F044FFC8
:104CF000002001F041FF012001F03EFF002001F003
:104D00003BFFC72001F044FF002001F035FF0020E9
:104D100001F032FF002001F02FFF002001F02CFFF6
:104D2000C82001F035FF002001F026FF002001F02F
:104D300023FF002001F020FF002001F01DFFC9200B
:104D400001F026FF002001F017FF002001F014FF02
:104D5000002001F011FF002001F00EFF002001F003
:104D60000BFF002001F008FF002001F005FF0020EC
:104D700001F002FF002001F0FFFE002001F0FCFE28
:104D8000002001F0F9FE002001F0F6FE002001F005
:104D9000F3FE002001F0F0FE002001F0EDFE002007
:104DA00001F0EAFEE02001F0F3FE162001F0E4FE3F
:104DB000002001F0E1FE1C2001F0DEFE002001F0E9
:104DC000DBFE212001F0D8FE002001F0D5FE3620C8
:104DD00001F0D2FE002001F0CFFE462001F0CCFE13
:104DE000002001F0C9FE522001F0C6FE002001F0B3
:104DF000C3FE642001F0C0FE002001F0BDFE7A2059
:104E000001F0BAFE002001F0B7FE8B2001F0B4FEE5
:104E1000002001F0B1FE992001F0AEFE002001F06B
:104E2000ABFEA82001F0A8FE002001F0A5FEB920ED
:104E300001F0A2FE002001F09FFEC42001F09CFEC4
:104E4000002001F099FECA2001F096FE002001F03A
:104E500093FED22001F090FE002001F08DFED920BB
:104E600001F08AFE002001F087FEE02001F084FEC0
:104E7000002001F081FEF32001F07EFE002001F011
:104E80007BFEE12001F084FE162001F075FE00207B
:104E900001F072FE1C2001F06FFE002001F06CFE9C
:104EA000222001F069FE002001F066FE362001F0AC
:104EB00063FE002001F060FE452001F05DFE002051
:104EC00001F05AFE522001F057FE002001F054FE7E
:104ED000642001F051FE002001F04EFE7A2001F026
:104EE0004BFE002001F048FE8B2001F045FE002023
:104EF00001F042FE992001F03FFE002001F03CFE4F
:104F0000A82001F039FE002001F036FEB92001F0A2
:104F100033FE002001F030FEC42001F02DFE002001
:104F200001F02AFECA2001F027FE002001F024FE35
:104F3000D22001F021FE002001F01EFED82001F059
:104F40001BFE002001F018FEE02001F015FE0020FD
:104F500001F012FEF32001F00FFE002001F00CFE24
:104F6000E22001F015FE052001F006FE002001F010
:104F700003FE0B2001F000FE002001F0FDFD1B20D0
:104F800001F0FAFD002001F0F7FD342001F0F4FDFE
:104F9000002001F0F1FD442001F0EEFD002001F0C1
:104FA000EBFD4F2001F0E8FD002001F0E5FD612060
:104FB00001F0E2FD002001F0DFFD792001F0DCFDD1
:104FC000002001F0D9FD882001F0D6FD002001F07D
:104FD000D3FD972001F0D0FD002001F0CDFDA620EB
:104FE00001F0CAFD002001F0C7FDB72001F0C4FDAB
:104FF000002001F0C1FDC22001F0BEFD002001F043
:10500000BBFDC72001F0B8FD002001F0B5FDD120A7
:1050100001F0B2FD002001F0AFFDD62001F0ACFDA3
:10502000002001F0A9FDDD2001F0A6FD002001F027
:10503000A3FDF32001F0A0FD002001F09DFDE32081
:1050400001F0A6FD052001F097FD002001F094FD80
:105050000A2001F091FD002001F08EFD1C2001F0DE
:105060008BFD002001F088FD332001F085FD00203C
:1050700001F082FD442001F07FFD002001F07CFD65
:10508000502001F079FD002001F076FD622001F052
:1050900073FD002001F070FD782001F06DFD00200F
:1050A00001F06AFD882001F067FD002001F064FD39
:1050B000972001F061FD002001F05EFDA62001F0C7
:1050C0005BFD002001F058FDB72001F055FD0020E8
:1050D00001F052FDC22001F04FFD002001F04CFD17
:1050E000C72001F049FD002001F046FDD12001F06C
:1050F00043FD002001F040FDD52001F03DFD0020E2
:1051000001F03AFDDD2001F037FD002001F034FD13
:10511000F32001F031FD002001F02EFDE42001F02C
:1051200037FD012001F028FD002001F025FD0120C0
:1051300001F022FD002001F01FFD022001F01CFD06
:10514000002001F019FD2A2001F016FD002001F0D9
:1051500013FD3C2001F010FD002001F00DFD4B205F
:1051600001F00AFD002001F007FD5D2001F004FDC3
:10517000002001F001FD742001F0FEFC002001F090
:10518000FBFC842001F0F8FC002001F0F5FC9320EA
:1051900001F0F2FC002001F0EFFCA22001F0ECFC99
:1051A000002001F0E9FCB32001F0E6FC002001F052
:1051B000E3FCBE2001F0E0FC002001F0DDFCC42097
:1051C00001F0DAFC002001F0D7FCCD2001F0D4FC86
:1051D000002001F0D1FCD32001F0CEFC002001F032
:1051E000CBFCDD2001F0C8FC002001F0C5FCF32061
:1051F00001F0C2FC002001F0BFFCE52001F0C8FC7A
:10520000002001F0B9FC002001F0B6FC002001F004
:10521000B3FC002001F0B0FC022001F0ADFC002046
:1052200001F0AAFC292001F0A7FC002001F0A4FC59
:105230003C2001F0A1FC002001F09EFC4B2001F07D
:105240009BFC002001F098FC5D2001F095FC002003
:1052500001F092FC742001F08FFC002001F08CFC26
:10526000842001F089FC002001F086FC932001F0ED
:1052700083FC002001F080FCA22001F07DFC0020D6
:1052800001F07AFCB32001F077FC002001F074FCFF
:10529000BE2001F071FC002001F06EFCC42001F082
:1052A0006BFC002001F068FCCD2001F065FC0020C3
:1052B00001F062FCD32001F05FFC002001F05CFCF7
:1052C000DC2001F059FC002001F056FCF32001F035
:1052D00053FC002001F050FCE62001F059FC1120A5
:1052E00001F04AFC002001F047FC342001F044FCAE
:1052F000002001F041FC562001F03EFC002001F0AE
:105300003BFC762001F038FC002001F035FC7720D2
:1053100001F032FC002001F02FFC662001F02CFC93
:10532000002001F029FC882001F026FC002001F07B
:1053300023FC992001F020FC002001F01DFCBB2083
:1053400001F01AFC002001F017FC992001F014FC78
:10535000002001F011FC662001F00EFC002001F09D
:105360000BFC552001F008FC002001F005FC552045
:1053700001F002FC002001F0FFFB452001F0FCFBE6
:10538000002001F0F9FB432001F0F6FB002001F0C2
:10539000F3FB442001F0F0FB002001F0EDFBE720DF
:1053A00001F0F6FB322001F0E7FB002001F0E4FB06
:1053B000552001F0E1FB002001F0DEFB762001F03A
:1053C000DBFB002001F0D8FB662001F0D5FB0020BC
:1053D00001F0D2FB672001F0CFFB002001F0CCFBF5
:1053E000672001F0C9FB002001F0C6FB872001F017
:1053F000C3FB002001F0C0FB992001F0BDFB0020A1
:1054000001F0BAFBBB2001F0B7FB002001F0B4FBB8
:10541000992001F0B1FB002001F0AEFB772001F0F4
:10542000ABFB002001F0A8FB442001F0A5FB00200D
:1054300001F0A2FB562001F09FFB002001F09CFB35
:10544000232001F099FB002001F096FB332001F0AE
:1054500093FB002001F090FB452001F08DFB002024
:1054600001F08AFBE82001F093FB002001F084FBAF
:10547000002001F081FB992001F07EFB002001F06B
:105480007BFB872001F078FB002001F075FB882072
:1054900001F072FB002001F06FFB772001F06CFB44
:1054A000002001F069FB662001F066FB002001F09E
:1054B00063FB882001F060FB002001F05DFBAA2067
:1054C00001F05AFB002001F057FBBB2001F054FB18
:1054D000002001F051FB992001F04EFB002001F06B
:1054E0004BFB662001F048FB002001F045FB5520F6
:1054F00001F042FB002001F03FFB552001F03CFB96
:10550000002001F039FB442001F036FB002001F0BF
:1055100033FB442001F030FB002001F02DFB55202F
:1055200001F02AFB002001F027FBE92001F030FB0D
:10553000AA2001F021FB002001F01EFB002001F059
:105540001BFB002001F018FB002001F021FBAA202A
:1055500001F012FBCF2001F01BFB002001F00CFB3F
:10556000002001F009FB002001F006FB002001F003
:1055700003FB002001F000FB002001F0FDFA0020F9
:1055800001F0FAFA002001F0F7FA002001F0F4FA35
:10559000002001F0F1FA002001F0EEFA002001F005
:1055A000EBFA002001F0E8FA002001F0E5FA002013
:1055B00001F0E2FA002001F0DFFA002001F0DCFA4D
:1055C000F02001F0E5FA002001F0D6FA502001F0B9
:1055D000D3FA002001F0D0FA002001F0CDFA00202B
:1055E00001F0CAFAF32001F0D3FA002001F0C4FA66
:1055F000F92001F0CDFA062001F0BEFA102001F0EA
:10560000BBFA292001F0B8FA002001F0B5FA3A20DF
:1056100001F0BEFA552001F0AFFA112001F0B8FAFE
:10562000642004F093FB292001F0B2FA352001F048
:10563000AFFA002001F0A0FA512001F0A9FAFF20F2
:1056400001F09AFA532001F0A3FA2C2001F094FA09
:10565000552001F09DFA822001F08EFA2C2001F0F5
:1056600097FA01F048B8FE48808845F21051884208
:105670007ED155214FF4704001F0A0FAAA214FF2DB
:10568000010001F09BFA52214FF2020001F096FA5C
:1056900008214FF2030001F091FA01214FF20400BA
:1056A00001F08CFA0D214FF4304001F087FA0D2102
:1056B0004BF2010001F082FA0D214BF2020001F0E1
:1056C0007DFA34214FF4364001F078FA34214BF260
:1056D000016001F073FA34214BF2026001F06EFABE
:1056E0000D214FF4314001F069FA0D214BF2011008
:1056F00001F064FA0D214BF2021001F05FFA34213F
:105700004FF4374001F05AFA34214BF2017001F0A6
:1057100055FA34214BF2027001F050FA00214FF497
:10572000324001F04BFA00214BF2012001F046FA21
:1057300000214BF2022001F041FA24214FF43840BD
:1057400001F03CFA24214BF6010001F037FA242144
:105750004BF6020001F032FA01214FF43F4001F014
:105760002DFA0F214FF4334001F028FA0F2100E009
:10577000FEE34BF2013001F021FA0F214BF202302F
:1057800001F01CFA34214FF4394001F017FA3421AA
:105790004BF6011001F012FA34214BF6021001F021
:1057A0000DFA08214FF4354001F008FA08214BF2B8
:1057B000015001F003FA08214BF2025001F0FEF90A
:1057C00003214FF4424001F0F9F924214FF43A400B
:1057D00001F0F4F924214BF6012001F0EFF9242126
:1057E0004BF6022001F0EAF900214FF43C4001F0B1
:1057F000E5F978214BF6014001F0E0F900214BF684
:10580000024001F0DBF900214FF43D4001F0D6F9F0
:1058100078214BF6015001F0D1F900214BF60250EE
:1058200001F0CCF900214FF43E4001F0C7F96421AA
:105830004BF6016001F0C2F900214FF4514001F034
:10584000BDF933214DF2011001F0B8F900214DF2FC
:10585000021001F0B3F934214DF2031001F0AEF95A
:1058600000214DF2041001F0A9F93A214DF2051082
:1058700001F0A4F900214DF2061001F09FF94A2130
:105880004DF2071001F09AF900214DF2081001F0D5
:1058900095F95C214DF2091001F090F900214DF2CB
:1058A0000A1001F08BF981214DF20B1001F086F9FD
:1058B00000214DF20C1001F081F9A6214DF20D10DE
:1058C00001F07CF900214DF20E1001F077F9E5218D
:1058D0004DF20F1001F072F901214DF2101001F09C
:1058E0006DF913214DF2111001F068F901214DF20B
:1058F000121001F063F954214DF2131001F05EF91A
:1059000001214DF2141001F059F982214DF21510C8
:1059100001F054F901214DF2161001F04FF9CA219E
:105920004DF2171001F04AF902214DF2181001F062
:1059300045F900214DF2191001F040F902214DF214
:105940001A1001F03BF901214DF21B1001F036F95C
:1059500002214DF21C1001F031F934214DF21D10DD
:1059600001F02CF902214DF21E1001F027F96721F8
:105970004DF21F1001F022F902214DF2201001F02A
:105980001DF984214DF2211001F018F902214DF288
:10599000221001F013F9A4214DF2231001F00EF9A9
:1059A00002214DF2241001F009F9B7214DF2251022
:1059B00001F004F902214DF2261001F0FFF8CF2189
:1059C0004DF2271001F0FAF802214DF2281001F0F3
:1059D000F5F8DE214DF2291001F0F0F802214DF228
:1059E0002A1001F0EBF8F2214DF22B1001F0E6F84D
:1059F00002214DF22C1001F0E1F8FE214DF22D10A4
:105A000001F0DCF803214DF22E1001F0D7F810213F
:105A10004DF22F1001F0D2F803214DF2301001F0B9
:105A2000CDF833214DF2311001F0C8F803214DF2C9
:105A3000321001F0C3F86D214DF2331001F0BEF8C1
:105A400000214FF4524001F0B9F833214DF201200A
:105A500001F0B4F800214DF2022001F0AFF801E0AE
:105A60005404002034214DF2032001F0A7F8002156
:105A70004DF2042001F0A2F83A214DF2052001F088
:105A80009DF800214DF2062001F098F84A214DF2D0
:105A9000072001F093F800214DF2082001F08EF864
:105AA0005C214DF2092001F089F800214DF20A2015
:105AB00001F084F881214DF20B2001F07FF80021E4
:105AC0004DF20C2001F07AF8A6214DF20D2001F0E4
:105AD00075F800214DF20E2001F070F8E5214DF22D
